:10E000000C9423710895FC01862F99278E279F2752
:10E0100090709C01A4E0220F331FAA95E1F782279C
:10E0200093279070382F2227AC0163E0440F551FCF
:10E030006A95E1F72427352744E0969587954A9518
:10E04000E1F7282739278F2F9927822793270895CB
:10E05000482F21E030E08BB19927B5E09695879560
:10E06000BA95E1F78170907082179307A1F74CB9C8
:10E070000895CF92DF92EF92FF920F931F93CF9369
:10E08000DF93EC01DB016A018091680080FDFCCF29
:10E09000E199FECF83E0FD01C0935B0080936800AF
:10E0A000E8958091680086FF0EC091E1809168003C
:10E0B00080FDFCCFE199FECF90936800E8958091B8
:10E0C000680086FDF3CFAD01BE01E12CF1E0FF2E2B
:10E0D000012D112DEA0EFB1E0C1F1D1FAE15BF05D5
:10E0E000C007D10720F531E08091680080FDFCCFAA
:10E0F000E199FECFF601208181819927982F882709
:10E10000820F911D0C01FA0160935B00309368004F
:10E11000E895112482E090E0C80ED91E4E5F5F4F53
:10E120006F4F7F4F4E155F0560077107E8F28091D2
:10E13000680080FDFCCFE199FECF85E0FD01C09332
:10E140005B0080936800E8958091680086FF0EC0B0
:10E1500091E18091680080FDFCCFE199FECF909322
:10E160006800E8958091680086FDF3CFDF91CF913C
:10E170001F910F91FF90EF90DF90CF90089581E075
:10E1800090E090930101809300015F9911C080910C
:10E19000000190910101019690930101809300018B
:10E1A0008091000190910101009721F05F9BEFCFDA
:10E1B0008CB199270895EF92FF920F931F93CF93FD
:10E1C000082F7B010E94BF70182F813059F0809179
:10E1D000000190910101892B71F1143061F1183126
:10E1E00089F729C00E94BF70C82F0E94BF708C0F92
:10E1F000912D911D8F3F910509F4C0131FEFC0E0D1
:10E200000C2F0E94BF70F70181937F01C80F80918E
:10E21000000190910101009781F00F5F07FFF1CF9E
:10E220000E94BF70C81731F48091000190910101E4
:10E23000892B09F41FEF812F9927CF911F910F91FF
:10E24000FF90EF900895CFEFDFE0DEBFCDBF9C01E0
:10E250001124F89480E187BB80EF85BB80E888BB00
:10E26000C49ABFECEB2EB7E0FB2E8EEC9FEFE80ECE
:10E27000F91EF7FEFACF8091020190910301855FAC
:10E28000914581F0B1E5263F3B0761F085EF91E5CF
:10E2900090930301809302019F9B04C0B79B02C02F
:10E2A0000C940000265F314531F087E189B9109266
:10E2B000900088E18AB910920301109202018AE06D
:10E2C0000E9428708DE00E9428708EE60E942870BF
:10E2D00083E40E94287088E60E94287089E60E94E4
:10E2E000287080E70E94287080E20E94287082E4F3
:10E2F0000E9428708FE60E9428708FE60E94287086
:10E3000084E70E9428708CE60E9428708FE60E94A5
:10E31000287081E60E94287084E60E94287085E6B5
:10E320000E94287082E70E94287080E20E94287074
:10E3300086E50E94287081E30E9428708EE20E9488
:10E34000287084E30E9428708AE00E9428708DE083
:10E350000E942870A1E0EA2EF12CC49ABE016F5FE2
:10E360007F4F81E00E94DB70C498882311F08F3FBB
:10E3700021F485E10E942870F0CF992400E010E09C
:10E38000AA24BB2465018130E9F487010170107073
:10E39000E0FE03C000E810E00FC0AE014F5F5F4F2A
:10E3A000C601B5010E94397080E091E0A0E0B0E0C4
:10E3B000A80EB91ECA1EDB1E99240894E11CF11C8C
:10E3C00086E014C0843011F0883149F4AE014F5F0B
:10E3D0005F4FC601B5010E94397086E014C0892DD7
:10E3E00093948B3010F088E10EC085E10E94287074
:10E3F000C49ACE010196800F911FBC018E2D0E9400
:10E40000DB70C498C0CF0E9428700C940000FFCF2E
:040000030000E00019
:00000001FF
