:020000021000EC
:10FC00000C942BFE089584E091E00895FC01862F6A
:10FC100099278E279F2790709C01A4E0220F331F05
:10FC2000AA95E1F7822793279070582F44279C01CB
:10FC300063E0220F331F6A95E1F74227532724E040
:10FC4000969587952A95E1F7482759278F2F992769
:10FC5000842795270895CFEFDFE0DEBFCDBF9C015D
:10FC60001124F89480E187BB80EF85BB80E888BBD6
:10FC7000C49AAA24BB2489E190E0A80EB91E90ED95
:10FC8000A91697E0B906B8F380910201909103019B
:10FC9000855F914581F0B1E5263F3B0761F085EF37
:10FCA00091E590930301809302019F9B04C0B79B51
:10FCB00002C00C940000265F314531F087E189B91C
:10FCC0001092900088E18AB910920301109202010B
:10FCD0008AE00E9497FF8DE00E9497FF8EE60E94C7
:10FCE00097FF83E40E9497FF88E60E9497FF89E6CA
:10FCF0000E9497FF80E70E9497FF80E20E9497FF93
:10FD000082E40E9497FF8FE60E9497FF8FE60E9491
:10FD100097FF84E70E9497FF8CE60E9497FF8FE68B
:10FD20000E9497FF81E60E9497FF84E60E9497FF5A
:10FD300085E60E9497FF82E70E9497FF80E20E947B
:10FD400097FF86E50E9497FF81E30E9497FF8EE26E
:10FD50000E9497FF84E30E9497FF8AE00E9497FF2A
:10FD60008DE00E9497FFB1E0AB2EB12CC49ABE018A
:10FD70006F5F7F4F81E00E94B7FFC498882311F026
:10FD80008F3F21F485E10E9497FFF0CF992400E096
:10FD900010E0CC24DD2476018130E9F48501017086
:10FDA0001070A0FE03C000E810E00FC0AE014F5F6E
:10FDB0005F4FC701B6010E9411FF80E091E0A0E013
:10FDC000B0E0C80ED91EEA1EFB1E99240894A11C9F
:10FDD000B11C86E014C0843011F0883149F4AE01C2
:10FDE0004F5F5F4FC701B6010E9411FF86E014C04C
:10FDF000892D93948B3010F088E10EC085E10E942C
:10FE000097FFC49ACE010196800F911FBC018A2DE5
:10FE10000E94B7FFC498C0CF0E9497FF0C940000C7
:10FE2000FFCFCF92DF92EF92FF920F931F93CF936A
:10FE3000DF93EC01DB016A018091680080FDFCCF5B
:10FE4000E199FECF83E0FD01C0935B0080936800E1
:10FE5000E8958091680086FF0EC08091680080FD63
:10FE6000FCCFE199FECF81E180936800E895809115
:10FE7000680086FDF2CFAD01BE01E12CF1E0FF2E5E
:10FE8000012D112DEA0EFB1E0C1F1D1FAE15BF0507
:10FE9000C007D10720F58091680080FDFCCFE19973
:10FEA000FECF21E0F601308181819927982F8827A4
:10FEB000830F911D0C01FA0160935B002093680091
:10FEC000E895112482E090E0C80ED91E4E5F5F4F86
:10FED0006F4F7F4F4E155F0560077107E0F280910D
:10FEE000680080FDFCCFE199FECF85E0FD01C09365
:10FEF0005B0080936800E8958091680086FF0EC0E3
:10FF00008091680080FDFCCFE199FECF81E1809374
:10FF10006800E8958091680086FDF2CFDF91CF916F
:10FF20001F910F91FF90EF90DF90CF9008955D9B10
:10FF3000FECF8CB9089581E090E090930101809309
:10FF400000015F9911C0809100019091010101961B
:10FF50009093010180930001809100019091010133
:10FF6000009721F05F9BEFCF8CB199270895EF9216
:10FF7000FF920F931F93CF93082F7B010E949BFF4B
:10FF8000182F813059F08091000190910101892B47
:10FF900071F1143061F1183189F729C00E949BFF7B
:10FFA000C82F0E949BFF8C0F912D911D8F3F9105B3
:10FFB00009F4C0131FEFC0E00C2F0E949BFFF70154
:10FFC00081937F01C80F80910001909101010097FA
:10FFD00081F00F5F07FFF1CF0E949BFFC81731F43C
:10FFE0008091000190910101892B09F41FEF812F6D
:0EFFF0009927CF911F910F91FF90EF900895E8
:040000031000FC00ED
:00000001FF
