:10E000000C942B70089585E091E00895FC01862F13
:10E0100099278E279F2790709C01A4E0220F331F21
:10E02000AA95E1F7822793279070582F44279C01E7
:10E0300063E0220F331F6A95E1F74227532724E05C
:10E04000969587952A95E1F7482759278F2F992785
:10E05000842795270895CFEFDFE0DEBFCDBF1124E1
:10E06000F89480E187BB80EF85BBC49AAA24BB24C7
:10E0700089E190E0A80EB91E90EDA91697E0B906C7
:10E08000B8F38091020190910301855F914531F0D1
:10E0900087E189B91092900088E18AB91092030152
:10E0A0001092020184B7882329F014BE9F9B02C0FE
:10E0B0000C94000010920301109202018AE00E9469
:10E0C00087718DE00E9487718EE60E94877183E4DC
:10E0D0000E94877188E60E94877189E60E94877195
:10E0E00080E70E94877180E20E94877182E40E942B
:10E0F00087718FE60E9487718FE60E94877184E79F
:10E100000E9487718CE60E9487718FE60E9487715A
:10E1100081E60E94877184E60E94877185E60E94ED
:10E12000877182E70E94877180E20E94877186E58D
:10E130000E94877181E30E9487718EE20E9487713D
:10E1400085E30E9487718AE00E9487718DE00E94BA
:10E150008771B1E0AB2EB12CC49ABE016F5F7F4FC7
:10E1600081E00E94A771C498882311F08F3F21F4A9
:10E1700085E10E948771F0CF992400E010E0CC2463
:10E18000DD2476018130E9F4850101701070A0FE74
:10E1900003C000E810E00FC0AE014F5F5F4FC70142
:10E1A000B6010E94077180E091E0A0E0B0E0C80EE7
:10E1B000D91EEA1EFB1E99240894A11CB11C86E0FE
:10E1C00014C0843011F0883149F4AE014F5F5F4FC5
:10E1D000C701B6010E94077186E014C0892D93948F
:10E1E0008B3010F088E10EC085E10E948771C49ADF
:10E1F000CE010196800F911FBC018A2D0E94A7714C
:10E20000C498C0CF0E94877188E081BDFFCFCF92B4
:10E21000DF92EF92FF920F931F93CF93DF93EC0166
:10E22000DB016A018091680080FDFCCFE199FECF9F
:10E2300083E0FD0180936800E8958091680086FF87
:10E240000EC08091680080FDFCCFE199FECF81E196
:10E2500080936800E8958091680086FDF2CFAD015B
:10E26000BE01E12C11E0F12E012D112DEA0EFB1E55
:10E270000C1F1D1FAE15BF05C007D10710F58091FB
:10E28000680080FDFCCFE199FECF21E0F6013081EE
:10E2900081819927982F8827830F911D0C01FA01FE
:10E2A00020936800E895112482E090E0C80ED91E02
:10E2B0004E5F5F4F6F4F7F4F4E155F0560077107D1
:10E2C000F0F28091680080FDFCCFE199FECF85E0FF
:10E2D000FD0180936800E8958091680086FF0EC07C
:10E2E0008091680080FDFCCFE199FECF81E18093B1
:10E2F0006800E8958091680086FDF2CFDF91CF91AC
:10E300001F910F91FF90EF90DF90CF9008955D9B4C
:10E31000FECF8CB9089581E090E090930101809345
:10E3200000015F9911C08091000190910101019657
:10E33000909301018093000180910001909101016F
:10E34000009721F05F9BEFCF8CB199270895EF9252
:10E35000FF920F931F93CF93082F7B010E948B7125
:10E36000182F813059F08091000190910101892B83
:10E3700071F1143061F1183189F729C00E948B7155
:10E38000C82F0E948B718C0F912D911D8F3F91058D
:10E3900009F4C0131FEFC0E00C2F0E948B71F7012E
:10E3A00081937F01C80F8091000190910101009736
:10E3B00081F00F5F07FFF1CF0E948B71C81731F416
:10E3C0008091000190910101892B09F41FEF812FA9
:0EE3D0009927CF911F910F91FF90EF90089524
:040000030000E00019
:00000001FF
