:020000021000EC
:10FC00000C942BFE089585E091E00895FC01862F69
:10FC100099278E279F2790709C01A4E0220F331F05
:10FC2000AA95E1F7822793279070582F44279C01CB
:10FC300063E0220F331F6A95E1F74227532724E040
:10FC4000969587952A95E1F7482759278F2F992769
:10FC5000842795270895CFEFDFE0DEBFCDBF1124C5
:10FC6000F89480E187BB80EF85BBC49AAA24BB24AB
:10FC700089E190E0A80EB91E90EDA91697E0B906AB
:10FC8000B8F38091020190910301855F914531F0B5
:10FC900087E189B91092900088E18AB91092030136
:10FCA0001092020184B7882329F014BE9F9B02C0E2
:10FCB0000C94000010920301109202018AE00E944D
:10FCC0008DFF8DE00E948DFF8EE60E948DFF83E404
:10FCD0000E948DFF88E60E948DFF89E60E948DFFBD
:10FCE00080E70E948DFF80E20E948DFF82E40E94E7
:10FCF0008DFF8FE60E948DFF8FE60E948DFF84E7C7
:10FD00000E948DFF8CE60E948DFF8FE60E948DFF82
:10FD100081E60E948DFF84E60E948DFF85E60E94A9
:10FD20008DFF82E70E948DFF80E20E948DFF86E5B5
:10FD30000E948DFF81E30E948DFF8EE20E948DFF65
:10FD400085E30E948DFF8AE00E948DFF8DE00E9476
:10FD50008DFFB1E0AB2EB12CC49ABE016F5F7F4F17
:10FD600081E00E94ADFFC498882311F08F3F21F4F9
:10FD700085E10E948DFFF0CF992400E010E0CC24B3
:10FD8000DD2476018130E9F4850101701070A0FE58
:10FD900003C000E810E00FC0AE014F5F5F4FC70126
:10FDA000B6010E9407FF80E091E0A0E0B0E0C80E3D
:10FDB000D91EEA1EFB1E99240894A11CB11C86E0E2
:10FDC00014C0843011F0883149F4AE014F5F5F4FA9
:10FDD000C701B6010E9407FF86E014C0892D9394E5
:10FDE0008B3010F088E10EC085E10E948DFFC49A2F
:10FDF000CE010196800F911FBC018A2D0E94ADFF9C
:10FE0000C498C0CF0E948DFF88E081BDFFCFCF9204
:10FE1000DF92EF92FF920F931F93CF93DF93EC014A
:10FE2000DB016A018091680080FDFCCFE199FECF83
:10FE300083E0FD01C0935B0080936800E8958091AA
:10FE4000680086FF0EC08091680080FDFCCFE199BC
:10FE5000FECF81E180936800E8958091680086FD7F
:10FE6000F2CFAD01BE01E12CF1E0FF2E012D112DED
:10FE7000EA0EFB1E0C1F1D1FAE15BF05C007D107E4
:10FE800020F58091680080FDFCCFE199FECF21E054
:10FE9000F601308181819927982F8827830F911D42
:10FEA0000C01FA0160935B0020936800E89511242F
:10FEB00082E090E0C80ED91E4E5F5F4F6F4F7F4FBC
:10FEC0004E155F0560077107E0F28091680080FDC4
:10FED000FCCFE199FECF85E0FD01C0935B008093EC
:10FEE0006800E8958091680086FF0EC080916800E8
:10FEF00080FDFCCFE199FECF81E180936800E89519
:10FF00008091680086FDF2CFDF91CF911F910F9114
:10FF1000FF90EF90DF90CF9008955D9BFECF8CB95E
:10FF2000089581E090E090930101809300015F9932
:10FF300011C08091000190910101019690930101FF
:10FF4000809300018091000190910101009721F0C0
:10FF50005F9BEFCF8CB199270895EF92FF920F939B
:10FF60001F93CF93082F7B010E9491FF182F8130A0
:10FF700059F08091000190910101892B71F11430A9
:10FF800061F1183189F729C00E9491FFC82F0E94A2
:10FF900091FF8C0F912D911D8F3F910509F4C01396
:10FFA0001FEFC0E00C2F0E9491FFF70181937F01AA
:10FFB000C80F8091000190910101009781F00F5FBF
:10FFC00007FFF1CF0E9491FFC81731F48091000123
:10FFD00090910101892B09F41FEF812F9927CF916F
:0AFFE0001F910F91FF90EF9008951C
:040000031000FC00ED
:00000001FF
