:100000000C9491000C94AE000C94AE000C94AE00D5
:100010000C94AE000C94AE000C94AE000C94AE00A8
:100020000C94E6010C94AE000C94AE000C94AE005F
:100030000C94AE000C94AE000C94D0010C94AE0065
:100040000C946F230C94AE000C94F4070C94AE0047
:100050000C9427080C94AE000C94AE000C94AE00E7
:100060000C94AE000C94AE000C94AE000C94AE0058
:100070000C94AE000C94AE000C942C130C94AE00B7
:100080000C945E130C94AE000C94AE0003070B1797
:100090002F5FBF0003050914295270004F4B004326
:1000A0004F4E4E454354004552524F52004E4F2042
:1000B00043415252494552004641494C205050500C
:1000C0000041555448204641494C20505050005062
:1000D000505020444F574E004641494C2054435005
:1000E00000534F434B455420434C4F534544004627
:1000F00041494C20444E53004641494C004E4F204C
:1001000044415441004552524F52202D204445460F
:1001100041554C5453204C4F4144454400302E37F8
:10012000700011241FBECFEFD0E1DEBFCDBF11E0C4
:10013000A0E0B1E0E8EEF8E402C005900D92AE3B1D
:10014000B107D9F718E0AEEBB1E001C01D92A93EAE
:10015000B107E1F70E943C010C9473240C94000059
:10016000482F8130C1F4A0E0B0E00E945F24802DD0
:10017000853A09F066C0ECEFF1E02AE030E0D90101
:100180000E945F24802D81932F5F3F4F24383105DB
:1001900009F459C0F4CF8230B1F485EAA0E0B0E0B0
:1001A000082E0E946724ECEFF1E02AE030E0819114
:1001B000D901082E0E9467242F5F3F4F2438310554
:1001C00009F441C0F4CF8823F1F587E28093FC0164
:1001D0008BE28093FD0188EC8093FE018093FF0108
:1001E000809300021092020287E1809303028093C1
:1001F00004028EE1809305028FE080930602109244
:10020000790210927A0210927B0210927C0284E6AC
:1002100080930F02109210028CE080930C0289E10F
:1002200090E090930E0280930D0284E0809301028F
:1002300010920702109208021092090210920A020C
:1002400002C040E0C2CF842F9927089588EF87BB72
:1002500014BA80E981BB8EE182B988E080936400A2
:1002600087E088BB8FEF85BB8FE682BB81EE83B9C9
:1002700087EF8093650008950E9426010E94B523B0
:10028000789481E00E94B0008091020287FF06C04E
:100290000E94BB0199278093040203C0809104024D
:1002A00099270E949A088091FC0185FF0CC084E187
:1002B00090E00E94DB2380E091E00E94DA088BE46A
:1002C00091E00E94DA0884E190E00E94DB238091B3
:1002D000FC0185FF0FC08DE791E00E94DA08E091F4
:1002E0009601F091970109950E94600783E991E0DA
:1002F0000E94DA088091030299270E9486130E94C7
:10030000A411C69A84E190E00E94DB23C69884E1A0
:1003100090E00E94DB23C69A84E190E00E94DB23F8
:100320000E94220F80E090E008951092BE011B9879
:100330001A9880E88ABF89BF089520E030E006C09F
:100340008091BF012F5F3F4F481740F4922FE22F5B
:10035000FF27EC56FF4F4491442391F7892F9927AB
:1003600008950E949D01ECE8F0E0E80FF11DE49192
:100370008E2F992708950E9495018091BE018823B0
:1003800009F4C49A8091BE01813009F4C59A809124
:10039000BE01823091F7C69A0E94B1019927089553
:1003A0001F920F920FB60F9211248F9382E08093C9
:1003B000BE011ABE87B78B7F87BF1EBC1DBC1CBC8D
:1003C0008F910F900FBE0F901F9018951F920F9254
:1003D0000FB60F9211248F939F938091BE018823B3
:1003E00069F491E09093BE01C69A80EC8ABF1DBC6F
:1003F0001CBC9EBD87B7846087BF0AC08091BE01C8
:10040000813031F48CB58093C0018DB58093BF01EC
:100410009F918F910F900FBE0F901F901895EF92A4
:10042000FF920F931F93CF93DF93CDB7DEB728973B
:100430000FB6F894DEBF0FBECDBF8C0102C00F5FB8
:100440001F4FF80180818032D1F399270E945924EF
:100450008334910599F1843491052CF4823491050B
:1004600009F028C109C08734910581F180359105D3
:1004700009F020C1F8017FC0F80181810F5F1F4F93
:100480008032D1F3BE016F5F7F4FC8010E94A80682
:100490000817190709F40EC180918F02882311F003
:1004A0000E947E1B69E673E089819A810E944A1B43
:1004B00080938F02882341F48DE8FDC080918F02E4
:1004C0000E947E1B10928F0280E0F5C08091960200
:1004D00090919702892B11F485E8EDC080E00E948D
:1004E0002E1480E992E00E94AF078CE991E00E940F
:1004F000DA0880919402909195020E949F078CE9FE
:1005000091E00E94DA0880918D0290918E020E9403
:100510009F078CE991E00E94DA081A8219820EC0C6
:100520008091960290919702E80FF91F80850E94B2
:100530009D0889819A8101969A838983E981FA814C
:1005400080918D0290918E02E817F90748F38CE9AB
:1005500091E00E94DA0880919602909197020E94A1
:100560009311109297021092960210928E0210929E
:100570008D028EEFA0C0818131968032E1F38F0130
:1005800099270E943D24892B09F494C0BE016B5F1A
:100590007F4FC8010E94870C882321F486E98BC015
:1005A0000F5F1F4FF80180818A3311F08823C1F754
:1005B000BE016F5F7F4FC80101960E94A806FC0133
:1005C00089819A81029708F475C080818A3341F449
:1005D000BE016D5F7F4FCF0101960E94A80606C045
:1005E00080918F020E946E1B9C838B8380E00E940F
:1005F0002E1410926B0410926A040E94BC239093F4
:100600006804809367040E940E1480916A0490919C
:100610006B048038910580F50E94BC23209167040B
:1006200030916804821B930B9C0197FF03C03095A7
:1006300021953F4F80910002992782179307E4F09C
:100640000E94AF088823F9F20E94A008182F809119
:10065000FC0181FF03C0812F0E949D0880916A04E4
:1006600090916B04FC01EF58FB4F1083019690931F
:100670006B0480936A04C1CFE0906A04F0906B042D
:100680002B813C8149815A816D817E818F81988542
:1006900001E714E00E94FB1B892B11F486E005C0E2
:1006A0008CE991E00E94DA0880E010926B041092CD
:1006B0006A0401C084E0992728960FB6F894DEBF3B
:1006C0000FBECDBFDF91CF911F910F91FF90EF90A3
:1006D0000895CF92DF92EF92FF920F931F93CF93E3
:1006E000DF936C01EB018091960290919702892B28
:1006F000E1F50E9480119C019093970280939602ED
:10070000892B99F109811881109395020093940225
:10071000F60184859585A685B78580939002909390
:100720009102A0939202B0939302ED80FC80C701E6
:10073000089790938E0280938D028138910530F056
:1007400080E890E090938E0280938D0240918D021C
:1007500050918E022896BE01C90108960E94072476
:1007600080916500877F80936500DF91CF911F9115
:100770000F91FF90EF90DF90CF9008951092210499
:1007800080E891E090939B0280939A0208951092E2
:100790009D0210929C028FEF9FEF9093990280939D
:1007A00098028091210482608093210408958091B1
:1007B000210480648D7F8093210408958091210419
:1007C000992796958795817090700895809121045E
:1007D0008D7F809321040895FC017727682779276E
:1007E0007070CB01A4E0880F991FAA95E1F78627C6
:1007F00097279070382F2227AC0163E0440F551FD4
:100800006A95E1F724273527EF2FFF272E273F276B
:1008100044E0969587954A95E1F7822793270895B6
:100820001F93CF93DF93EC01162F80919E0290913E
:100830009F020E94EC0390939F0280939E02812F5F
:100840008D57823048F0103260F4C152D04C21F004
:100850008091210483FD05C08DE70E94E31380E2AF
:100860001827812F0E94E313DF91CF911F910895E4
:100870008F929F92AF92BF92CF92DF92EF92FF92B0
:100880000F931F93CF93DF93EC017B015A01690112
:1008900048018EE70E94E3138FEF9FEF90939F0232
:1008A00080939E028091210485FF04C080ECC132B8
:1008B000D80741F46FEFCE010E94100463E0CE012F
:1008C0000E9410046D2F7727CE010E9410046C2F18
:1008D000CE010E94100400E010E008C0F701619111
:1008E0007F01CE010E9410040F5F1F4F0C151D05E4
:1008F000A9F700E010E0750108C0F70161917F01E0
:10090000CE010E9410040F5F1F4F08151905A9F7AB
:1009100000919E0210919F0200951095602FCE01CC
:100920000E941004012F1127602FCE010E94100495
:100930008EE70E94E31380E090E0DF91CF911F915A
:100940000F91FF90EF90DF90CF90BF90AF909F906E
:100950008F900895EF92FF920F931F93CF93DF93A1
:10096000182F20912104822F992781FD18C086FF1E
:10097000EBC0812F8D57823008F0E6C010929D02A7
:1009800010929C028FEF9FEF9093990280939802B0
:10099000226020932104822F992781FFD5C027FF51
:1009A0000FC01E3709F0D3C010929D0210929C0216
:1009B0008FEF9FEF90939902809398022F7715C045
:1009C000103210F482FFC3C080FF16C02E7F209328
:1009D00021041E3771F410929D0210929C028FEF39
:1009E0009FEF9093990280939802226020932104B4
:1009F000AEC080E2182774C01E3709F06DC0809128
:100A000098029091990240919C0250919D02885BBE
:100A1000904FD1F44250504050939D0240939C021D
:100A20002D7F20932104425050408091A0029927AD
:100A3000982F88272091A102332762EA72E0822B47
:100A4000932B0E94451E38C044305105A8F1809177
:100A5000FC0186FF31C0CA010E949F078091980265
:100A6000909199020E94600760919C0270919D0292
:100A700080EA92E00E945B1D8FEF9FEF90939902B6
:100A80008093980200919C0210919D02C0E0D0E0FA
:100A900020EAE22E22E0F22E06C0F70161917F01EA
:100AA0000E94EC032196C017D107B9F790939902E1
:100AB000809398020E94600710929D0210929C02FF
:100AC0008FEF9FEF90939902809398028091210479
:100AD0008260809321043BC01D3711F4216086CFD2
:100AE000C0919C02D0919D0280919A0290919B02AC
:100AF000C817D90770F02091210410929D0210921E
:100B00009C028FEF9FEF9093990280939802226846
:100B10006DCF612F80919802909199020E94EC0311
:100B20009093990280939802209721F41F3F79F0C7
:100B3000133069F0FE01E056FD4F10832196D093EB
:100B40009D02C0939C0203C081E090E002C080E05F
:100B500090E0DF91CF911F910F91FF90EF9008955A
:100B6000CF93DF93382FFB01282F22952F70822FF0
:100B700099272F700A9714F4205D01C0295C2193F6
:100B8000DF01832F99278F709070232F2F700A9782
:100B900014F4205D01C0295CFD012193ED0119824F
:100BA000CF01DF91CF910895CF93DF939C01FB019B
:100BB000892F992782958F70482F4F700A9718F4C4
:100BC000842F805D02C0842F895C8193832F9927B5
:100BD000482F4F708F7090700A9718F4842F805DA3
:100BE00002C0842F895C8193C90144E09695879562
:100BF0004A95E1F7482F4F708F7090700A9718F45C
:100C0000842F805D02C0842F895C8193DF01822F55
:100C10008F702F7030702A30310510F4805D01C064
:100C2000895CFD018193ED011982CF01DF91CF91A4
:100C30000895EF92FF920F931F93CF93DF937C0160
:100C40008B0120E030E040E050E090E0D7017AE016
:100C500007C0979FC0011124962F980F90531196AB
:100C60006C91862F80538A30A0F3292FEA16FB0659
:100C700009F44CC06E3209F049C0932FFD017AE0AF
:100C800006C0979FC0011124962F980F9053618141
:100C90003196862F80538A30A0F3392FAE17BF07C5
:100CA000A9F16E3299F5942FDF017AE006C0979F83
:100CB000C0011124962F980F9053ED016981119670
:100CC000862F80538A3098F3492FEA17FB07F1F0FB
:100CD0006E32E1F4952FFD017AE006C0979FC001C6
:100CE0001124962F980F905361813196862F80534F
:100CF0008A30A0F3592FAE17BF0741F0D8012D93CA
:100D00003D934D935C931397CF0101C0C701DF91D1
:100D1000CF911F910F91FF90EF900895FC0120E07B
:100D200030E00FC0C901A3E0880F991FAA95E1F731
:100D3000220F331F280F391F240F311D205330403D
:100D400031964081842F80538A3060F3C901089521
:100D5000DC01FB011182108214C0808191819C0111
:100D600053E0220F331F5A95E1F7880F991F820F26
:100D7000931F918380832D91820F911DC097918342
:100D800080838C9180538A3040F3CD0108951F9366
:100D9000CF93DF93EC01FB01122F892B19F09A01FD
:100DA00040E031C02223D9F780E381932FC0CE01E8
:100DB000B9010E9429246115710519F4442331F405
:100DC00018C0CB018F7090700A9720F4862F8F7017
:100DD000805D03C0862F8F70895C8193629FC00104
:100DE000639F900D729F900D1124C81BD90B41E099
:100DF00004C0112311F080E38193C9016AE070E01F
:100E00000E9429249B012115310589F61082CF010A
:100E1000DF91CF911F910895FC0140E050E022C086
:100E2000822F80538A3020F433272053304012C061
:100E3000822F8156863020F43327275530400AC050
:100E4000822F8154863018F02FEF30E003C0332713
:100E50002753304064E0440F551F6A95E1F7420F75
:100E6000531F31962081213210F02D33C9F6CA016B
:100E700008950F931F93CF93DF93DC018B0101C083
:100E8000DF01FD0181918032D9F3806280937D0280
:100E9000ED018981806280937E02EF01219610929C
:100EA0007F028D3309F4EF018DE792E00E940C0779
:100EB000F8018083CE01DF91CF911F910F910895AA
:100EC0000F931F930DE712E0B8010E94D405C801EB
:100ED0000E94DA081F910F9108950F931F930DE759
:100EE00012E0B8010E94B005C8010E94DA081F9103
:100EF0000F910895CF93DF93CDB7DEB724970FB648
:100F0000F894DEBF0FBECDBF69837A838B839C8349
:100F10008C810E946D078B810E946D07FE013196C6
:100F200081810E946D0789810E946D0724960FB60A
:100F3000F894DEBF0FBECDBFDF91CF9108950F9320
:100F40001F930DE712E020E040E157E2B8010E9454
:100F5000C706C8010E94DA081F910F910895EF9209
:100F6000FF920F931F937C010DE712E0FC0180813B
:100F700020E044E650E0B80199270E94C706C80166
:100F80000E94DA088EE20E949D08F701818120E02C
:100F900044E650E0B80199270E94C706C8010E94A4
:100FA000DA088EE20E949D08F701828120E044E683
:100FB00050E0B80199270E94C706C8010E94DA08CC
:100FC0008EE20E949D08F701838120E044E650E014
:100FD000B80199270E94C706C8010E94DA081F912C
:100FE0000F91FF90EF9008951F920F920FB60F92FE
:100FF00011248F939F93EF93FF93C59A9CB1809197
:1010000063048034D8F480916504E82FFF27ED5DF8
:10101000FB4F90838F5F80936504809165048034DB
:1010200010F010926504809163048F5F80936304D5
:10103000809163048A3310F01A9AC698FF91EF9159
:101040009F918F910F900FBE0F901F9018951F9238
:101050000F920FB60F9211248F9381E08093640456
:101060008F910F900FBE0F901F90189510926504EE
:10107000209165042093220420912204209363048C
:1010800021E02093640428ED2AB989B9892F992792
:10109000809390001A98C69A1B981092C2011092E1
:1010A000C10108950E9B02C0C7980895C79A08957C
:1010B000809163048823E1F380912204E82FFF27C5
:1010C000ED5DFB4FE0818F5F8093220480912204CD
:1010D000803410F010922204F894809163048150BF
:1010E00080936304809163048A3310F41A98C69A3B
:1010F00078948E2F992708951F93182FC49A809162
:10110000020282FD03C00BC00E9452088091640459
:101110008823D1F30E99F8CF06C00E94520880911F
:1011200064048823D1F3109264041CB9812F992799
:101130001F9108950E94360808950E947C08089522
:101140008091C1019091C201009729F01092C201D3
:101150001092C10102C00E945808992708958091F9
:10116000C1019091C201892B19F081E090E00895AE
:101170008091630420E030E0882311F021E030E02A
:10118000C9010895992791609093C2018093C1018C
:101190000895CF93DF93EC0105C02196F901849166
:1011A0000E949D089E01FE0184918823B1F7DF9182
:1011B000CF910895CF93DF93EC01892B21F406C0E2
:1011C00021960E949D0888818823D1F7DF91CF91D5
:1011D000089510927602109211021092120210924B
:1011E0001302109214021092190210921A02109215
:1011F0001B0210921C0210921D0210921E021092ED
:101200001F02109220020895CF92DF92EF92FF9278
:101210000F931F93CF93DF93EC0180917602992770
:1012200080FD5CC084E090E00E94EE23813009F0F4
:1012300073C088838091DB08898383E08C8396E088
:101240009D83809111028E83809112028F83809101
:1012500013028887809114028987DE011A96809193
:10126000760283FD11C081E88A879B8780911902ED
:101270008C8780911A028D8780911B028E878091C6
:101280001C028F87DE0150968091760284FD1EC07D
:1012900083E8FD0181939F01FD019183D90111969E
:1012A00080911D02F90181839D012F5F3F4F809145
:1012B0001E02FD018183D901119680911F02F9015F
:1012C000818380912002FD01818312968D010C1B88
:1012D0001D0BC12ED02EDB82CA8213C085FF1CC01D
:1012E00084E090E00E94EE238130B1F485E08883B1
:1012F0008091DB08898304E010E0E12EF02EFB8270
:10130000EA8220E030E0AE0160E070E081E290E847
:101310000E9438040E94CA23DF91CF911F910F9140
:10132000FF90EF90DF90CF900895AF92BF92CF9251
:10133000DF92EF92FF920F931F93CF93DF937C0185
:101340005B01DC011196EC018881823009F458C000
:10135000833020F4813009F0E9C007C0833009F4FC
:1013600055C0843009F0E2C0B3C0FD013196ED01F3
:1013700089819927D82ECC2481819927C82AD92AF6
:10138000EF0122968601045010409E01A7016FE9EB
:1013900071E081E290E80E94BD1D892BC1F0C6C0BA
:1013A0008881833071F48A81809315028B818093C8
:1013B00016028C81809317028D81809318022696E5
:1013C00006C0CE0101962981EC01C20FD11DC701D3
:1013D0008C0D9D1DC817D90718F380917602826085
:1013E0008093760282E0F7018083850120E030E07F
:1013F000A70160E070E081E290E80E94380496C0A6
:10140000809176028160809376028EC08091DB08A5
:101410008F5F8093DB08FD013196ED01898199276B
:10142000382F222781819927282B392BDF0112960B
:101430002E0D3F1D48C08D918138D1F0833869F160
:10144000833009F040C0FD013196ED018981809320
:101450001102DF011196818180931202FD01319604
:10146000ED0189818093130281818093140229C048
:10147000FD013196ED01898180931902DF011196FA
:10148000818180931A02FD013196ED01898180935B
:101490001B02818180931C0214C0FD013196ED0175
:1014A000898180931D02DF011196818180931E0244
:1014B000FD013196ED01898180931F028181809326
:1014C0002002DF011296A217B30708F4B4CF2CC094
:1014D0008091DB088F5F8093DB08FD013196ED0181
:1014E00089819927382F222781819927282B392B09
:1014F00032962E0D3F1D15C08191813841F0833801
:1015000051F0833071F480917602846007C080913D
:101510007602886003C080917602806180937602B3
:101520003596E217F30740F30E94AE2385E090E082
:101530000E94DB23DF91CF911F910F91FF90EF90DD
:10154000DF90CF90BF90AF900895FC0180818053D1
:10155000823030F480936C04818131968032E1F3E3
:10156000CF0108958091650081FD02C0C59A01C038
:10157000C598979902C0C69A01C0C6988091630029
:1015800080FD02C01C9801C01C9A8091720287FFE6
:1015900007C08091960290919702892B39F002C082
:1015A000869904C080916500877F03C080916500A3
:1015B000886080936500809169040D9904C089302A
:1015C00029F4979803C0893009F4979A80E090E055
:1015D0000895979A85E090E00E94DB2397980895FC
:1015E0009F992DC08091C501882351F40E94C62384
:1015F0009093C4018093C30181E08093C501089555
:101600000E94C6232091C3013091C401821B930B19
:1016100097FF03C0909581959F4F0B9794F0809111
:10162000C501813051F482E08093C50180E0A0E0E3
:10163000B0E0082E0E9467240895C59A089510927C
:10164000C5010895EF92FF920F931F93CF93DF93FD
:101650007A0180916500877F80936500C0E0D0E0CB
:101660008B0106C0F80181918F010E949D0821968F
:10167000CE15DF05B9F7C701DF91CF911F910F910B
:10168000FF90EF90089504C00E9493130E949D085C
:101690000E94D0138823C1F708951F93182F8091BB
:1016A0006A0490916B048038910518F081E090E015
:1016B0001FC081E08093C9010E94BC2390936804FD
:1016C000809367048091FC0181FF03C0812F0E94F9
:1016D0009D0880916A0490916B04FC01EF58FB4FC8
:1016E0001083019690936B0480936A0480E090E0ED
:1016F0001F9108950E94BC234091CD01442311F015
:101700004230A1F42091CA013091CB01281B390B42
:1017100037FF03C0309521953F4F8091FE019927F7
:10172000821793071CF44F5F4093CD0108951F93D8
:101730000D990AC010E080916F04882309F411E02C
:1017400081E080936F0403C010926F0410E00E9448
:101750007A0B8091CC01833029F48091CD018330C4
:1017600009F411E0812F99271F9108950E94BC234D
:101770009093CB018093CA011092CC011092CD01BD
:1017800008951F93982F8091FC0183FF02C010E001
:1017900024C08091CD018823C1F08091FD0198176C
:1017A000A1F41091CC011F5F1093CC01143088F488
:1017B000133049F482E08093CD010E94BC239093C2
:1017C000CB018093CA011FEF08C01091CC011123F7
:1017D00011F01F3F11F00E94B60B812F99271F9126
:1017E00008951F93E0917004FF27E359FB4F808118
:1017F0000E94BB14182F8F70843011F410E012C0B7
:1018000084E080936904E0917004FF27E359FB4F63
:1018100080810E94811A83EA91E00E94DA088DE8B3
:101820000E942E14812F99271F910895813019F459
:101830001092C9011FC080916A0490916B04803896
:101840009105C0F48091C901882389F10E94BC23CD
:101850002091670430916804821B930B9C0197FFD1
:1018600003C0309521953F4F8091FF019927821742
:101870009307ECF41092C90140916A0450916B04F3
:101880004115510589F0E0917004FF27E359FB4FA2
:10189000808161E774E099270E94ED16882321F08A
:1018A00010926B0410926A0481E090E0089580E049
:1018B00090E008950E94B20A80916904893031F164
:1018C0008091C801882381F08091630080FF1EC051
:1018D000C7981092C8010E94651F81E08093690437
:1018E00085E00E942E1408958091630080FD0EC053
:1018F000C79A91E09093C8018091FC0184FF04C0D5
:1019000083E0809369040895909369040895FC012D
:101910009B01808180538A3030F4CF010E941906E8
:1019200081E090E00895BF01C9010E94632020E09A
:10193000892B09F021E081E02827822F992708953B
:1019400086EA91E00E94DA080E94BC232091670495
:1019500030916804821B930B0E949F078CEA91E0F0
:101960000E94DA088091670490916804885E934031
:101970009093680480936704109266040895FB01B5
:1019800001C0319690819032E1F3DF01992321F477
:101990001082AF0109C0319690819C3219F09923D1
:1019A000D1F701C01192AF01882321F4BD010E943B
:1019B000A91F04C0BA01CD010E94CC1F9927089528
:1019C000CF92DF92EF92FF920F931F93CF93DF930B
:1019D000CDB7DEB728970FB6F894DEBF0FBECDBFE8
:1019E0008091F2048F7D823509F084C11091F30457
:1019F0001F7D94EFE92E94E0F92E03C00894E11CBA
:101A0000F11CF70180818032C9F31E3409F4B0C0A3
:101A10001F34D8F41534A1F1163468F4133409F4E2
:101A20007DC0143408F09CC0112309F48EC1123417
:101A300009F060C157C1183409F487C11D3409F495
:101A40008CC0163409F056C180C1133509F40AC19F
:101A5000143548F41035E1F0103508F47CC0123527
:101A600009F048C1C0C0153509F4F7C0153508F4B0
:101A700091C0183509F4D4C01A3509F03BC143C0F0
:101A800099270E9459248934910509F0F3C0EEC0CA
:101A900099270E943D24892B09F42CC185E0C82E8A
:101AA000D12CCC0EDD1EB601C7010E94870C882305
:101AB00009F44AC181E08093660480EA9CE00E94B8
:101AC000EB1168E370E0C6010E943F120E94BC2344
:101AD000909368048093670402C00E940E140E94D1
:101AE000BC232091670430916804821B930B8059BA
:101AF000914098F30E94F01180916604882309F4C4
:101B000024C116E022C16DE772E0809169040E9451
:101B1000B0058DE792E00E94DA083AC099270E944A
:101B200059248035910541F40894E11CF11CB7015A
:101B300081E00E94BF0C94C0B70180E00E94BF0CFE
:101B4000182F813021F484E080936904FEC00E9444
:101B5000651F10E8FAC089E008C00E94E90ACCC0FD
:101B60000E94191F0E94E90A81E080936904C4C0A1
:101B70008E010B5F1F4FB701C8010E946320892BA4
:101B800009F0E2C080E00E942E14C8010E94AF0755
:101B90001FEFDBC0C7010E94A50A8C01E816F906F9
:101BA00009F4A8C0BE016B5F7F4F0E94870C882399
:101BB00019F4CAC00F5F1F4FF80180818A3319F0F2
:101BC0008823C1F797C0BE016D5F7F4FC8010196A2
:101BD0000E94A8068B819C81892B09F08FC08AC046
:101BE0009093700417C0C7010E94A50AE816F90671
:101BF00009F4ABC0E0916C04FF27E359FB4F8081EF
:101C00000E94BB14049711F01DE89FC080916C04E2
:101C10008093700410926B0410926A0486E0A5CF42
:101C2000C7010E94A50AE816F90649F0E0916C0484
:101C3000FF27E359FB4F80810E94811A5DC081E03C
:101C40000E94BB140E946D078DE20E949D0882E0F5
:101C50000E94BB140E946D074FC0C7010E940F0273
:101C6000182F73C0C7010E94FA21FACF80E0A0E0CC
:101C7000B0E029C08335910531F482E00E94B000C4
:101C80008230C1F539C08C34910539F481E00E946D
:101C9000B000813089F116E858C0BE016D5F7F4FFA
:101CA000C7010E94A806E816F90621F1F701808114
:101CB0008D3369F4BE016F5F7F4FC7010E94390702
:101CC000AB81BC818981082E0E94672415C0AB813D
:101CD000BC810E945F24802D99279C838B830E9466
:101CE0006D0756CFE0919A01F0919B0186EF91E547
:101CF00009952BC014E029C010E027C0E0916C04C6
:101D0000FF27E359FB4F80810E94811A80916C0468
:101D1000082F11274B815C816D817E818F81988591
:101D200022E23BE00E94D41A03591B4FF801808342
:101D300090916C04E92FFF27E359FB4F80818823A2
:101D400009F04ECF1CE801C016E9812F0E942E1425
:101D500028960FB6F894DEBF0FBECDBFDF91CF91AE
:101D60001F910F91FF90EF90DF90CF9008951F93F8
:101D7000982F87FF02C011E061C08091C6019D309D
:101D800001F5882311F410E017C0E82FFF27EF506A
:101D9000FB4F108283EA91E00E94DA088AE090E02B
:101DA0000E94DB2302C00E94A0080E94AF08882383
:101DB000D1F70E94E00C11E01092C6011092C70109
:101DC0003DC08823A9F0983051F481508093C6011A
:101DD0008F3F41F51092C6011092C70123C08F3387
:101DE00008F5E82FFF27EF50FB4F90838F5F0BC064
:101DF0008091C7018823A1F4892F8F7D893431F424
:101E00009093F10481E08093C6010CC09A3011F0E8
:101E1000903219F41092C70103C081E08093C7018A
:101E200010E001C011E08091FC0180FF07C0112388
:101E300029F09A3019F0892F0E949D08812F992747
:101E40001F910895EF92FF920F931F9381E080936B
:101E500069041092F1041092C90110929502109237
:101E6000940210929002109291021092920210929B
:101E7000930210928E0210928D021092970210928D
:101E800096028AE090E00E94DB230E94430B0E94AE
:101E90000E14E39449F480E00E940D170E945A0C3E
:101EA0000E94F00A0E946C1F0E94970B8823C9F0C1
:101EB00080916904833049F0863099F484E08093FE
:101EC000690481E00E94160C03C081E080936904DC
:101ED00083EA91E00E94DA0880E00E942E140E94BA
:101EE000B60B0E94AF08882309F451C00E94A008D5
:101EF000F82E80916904843059F1853030F48130B6
:101F000049F0833009F043C00BC0863039F1893085
:101F1000F1F51AC08F2D0E94B70E8823C1F514C0A9
:101F20008091FC0184FF10C08F2D0E94C10B082FEF
:101F30008F3F69F18823C1F507C08091FD010E94A0
:101F4000E3131F5F1017C9F78F2D0E94E3131FC003
:101F50008F2D0E94B70E0E94B60B19C08F2D0E94C4
:101F6000C10B082F8F3F99F0882301F507C080919E
:101F7000FD010E944D0B1F5F1017C9F78F2D0E94A6
:101F80004D0B882321F08F2D99270E94C208809144
:101F9000690480FD7CCF863009F079CF80E00E9413
:101FA000160C0E94F10B73CF10E0C7CF10E0DFCF0B
:101FB000CF92DF92EF92FF920F931F93CF93DF9315
:101FC000EC018091740280FD26C084E090E00E94C4
:101FD000EE23982F8130E9F588838091DB0889838F
:101FE0008E010C5F1F4F8091740284FD0DC085E04F
:101FF0008C8386E08D831E821F8298878091DB0808
:1020000089878E01065F1F4F0C1B1D0BC12ED02E22
:10201000DB82CA8213C087FF1CC084E090E00E946C
:10202000EE238130B1F485E088838091DB088983D9
:1020300004E010E0E12EF02EFB82EA8220E030E0A6
:10204000AE0160E070E081E290EC0E9438040E94F2
:10205000CA23DF91CF911F910F91FF90EF90DF90F6
:10206000CF90089510927402109278021092770225
:102070000E94AE2308956F927F928F929F92AF92AB
:10208000BF92CF92DF92EF92FF920F931F93CF9365
:10209000DF937C013B01DC011196EC0188818330E8
:1020A00009F4D6C0843030F4813071F0823009F008
:1020B00014C1BFC0853009F4F2C0853008F4CEC029
:1020C000863009F00AC104C15D010894A11CB11C4D
:1020D000FD0181819927D82ECC2445010894811CCB
:1020E000911CE50189819927C82AD92AE401219602
:1020F0008601045010409E01A70161EB71E081E26E
:1021000090EC0E94BD1D892B09F0E7C09E0140E0C4
:1021100067C089918330E1F1843030F4813071F00F
:10212000823009F05DC01EC0873009F458C0883085
:1021300009F455C0853009F053C04FC089918430EF
:1021400009F04EC08991882331F48991882319F4CC
:1021500080E090E002C081E090E09093780280936C
:1021600077023EC0FE013196898180937C02DF01B7
:102170001196818180937B02FD013196ED01898169
:1021800080937A02818180937902EF01229628C0A0
:10219000FE013196EF0121968081803C51F48181CE
:1021A0002196833231F480917402846080937402AA
:1021B00017C083E0F9018193AF0184E0F9018183C5
:1021C000DA01119680ECFA01818383E2FD018183BB
:1021D0009D012E5F3F4F41E003C0259601C021962F
:1021E000C7018C0D9D1DC817D90708F492CF442351
:1021F00069F083E0E7018883F5011082822F8E1950
:10220000E40188832E193F09890109C08091740275
:1022100082608093740282E0F7018083830120E072
:1022200030E0A70160E070E081E290EC0E943804A9
:102230000CC0E70199818091DB08981709F04DC027
:10224000809174028160809374020E94AE2345C025
:102250008091DB088F5F8093DB083FC08091DB08B3
:102260008F5F8093DB08FD013196ED01898199270D
:10227000382F222781819927282B392B32962E0D32
:102280003F1D09C08191853031F4809174028061D5
:10229000809374023596E217F307A0F31EC086E020
:1022A000F70180838B0120E030E0A70160E070E05F
:1022B00081E290EC0E943804809174028E7F8860E5
:1022C000809374020E94651F82E80E942E1405C04C
:1022D000809174028D7F8093740285E090E00E946B
:1022E000DB23DF91CF911F910F91FF90EF90DF9053
:1022F000CF90BF90AF909F908F907F906F900895F8
:10230000E091FB07F091FC07309759F080819181B3
:102310009093FC078093FB078091CE018F5F8093A1
:10232000CE01CF010895FC018091FB079091FC073D
:1023300091838083F093FC07E093FB078091CE01AB
:1023400081508093CE01089523E335E0D9014AEA14
:10235000F9013896CD018E549F4F8D939C93DF01E8
:10236000542F1D925A95E9F7EE54FF4FDC0188E097
:10237000E330F80779F710924A0710924907309333
:10238000FC072093FB071092CE010895FB019C01EE
:10239000209530950CC080819181280F391F281716
:1023A000390710F42F5F3F4F425050403296423071
:1023B000510588F74130510551F480819181907029
:1023C000280F391F2817390710F42F5F3F4FC90115
:1023D0008095909508959093FE078093FD0708954A
:1023E0001092FE071092FD0708950F931F93CF934D
:1023F000DF93EC01FB018A018081882319F088308A
:1024000061F50BC02091FD073091FE0721153105C4
:1024100021F1CE01F901099520C0108282819381BA
:1024200080509840938382832C853D854E855F85BF
:1024300088899989AA89BB898C879D87AE87BF8740
:10244000288B398B4A8B5B8B20E030E0AE0160E05B
:1024500070E081E290E00E943804DF91CF911F91FB
:102460000F9108950F931F9389019A01AB01BC014D
:1024700081E290E00E9438041F910F9108956F92BD
:102480007F928F929F92AF92BF92CF92DF92EF9204
:10249000FF920F931F93CF93DF933C01EB010E94B8
:1024A00080115C01892B19F480E090E07FC07E01EF
:1024B000C134D10518F090E4E92EF12C8501085FB4
:1024C0001F4F85E4F501808780911002F801818318
:1024D0008CE1882E912C8E0C9F1CC92CD82CD38279
:1024E000C2828091FF0790910008958384830196B2
:1024F000909300088093FF0780910F0280871782D6
:10250000168281E081878091110290911202A09140
:102510001302B091140284879587A687B787F301C9
:1025200080819181A281B381F801808B918BA28BF4
:10253000B38B1386128644E150E0B80180E090E04E
:102540000E94C611F80193878287E5016C9688E0A6
:10255000F501848F19821B821A8281E090E09D83AD
:102560008C839F838E83FE0180E090E002C087838E
:10257000019631968E159F05D1F788E090E0E80E20
:10258000F91EA701BE0180E090E00E94C6119B8366
:102590008A8320E030E0A40160E070E0C8010E947E
:1025A0003212C5010E94931181E090E0DF91CF913A
:1025B0001F910F91FF90EF90DF90CF90BF90AF9061
:1025C0009F908F907F906F900895AF92BF92CF921F
:1025D000DF92EF92FF920F931F93CF93DF93EC0163
:1025E00044E150E0BC0180E090E00E94C611892BDC
:1025F00041F50F811E8115FD24C089858630C1F00B
:10260000813161F08130E9F4AB80BA80BE016C5E4B
:102610007F4FA501CE010E94F51113C0CB80DA8057
:10262000BE016C5E7F4FA601CE010E948B1B09C0CC
:10263000EB80FA80BE016C5E7F4FA701CE010E9445
:102640004817DF91CF911F910F91FF90EF90DF908E
:10265000CF90BF90AF9008951F920F920FB60F9238
:1026600011248F939F93EF93FF9390919C008091FF
:1026700094088139D0F480919508E82FFF27EF5F07
:10268000F74F90838F5F80939508809195088139EB
:1026900010F010929508809194088F5F80939408B1
:1026A00080919408873808F0959AFF91EF919F9157
:1026B0008F910F900FBE0F901F9018951F920F9241
:1026C0000FB60F9211248F9381E0809392088F911F
:1026D0000F900FBE0F901F901895109295082091A3
:1026E000950820939308209193082093940821E063
:1026F0002093920828ED20939A0080939900892FC7
:10270000992780939800959897980895009711F4C9
:1027100087E190E01092D0011092CF010E946D13DA
:1027200080E090E008958091CF019091D0010097D2
:1027300031F090701092D0011092CF0108958091E5
:102740009408882319F48FEF9FEF089580919408DF
:102750008823E1F380919308E82FFF27EF5FF74F7D
:10276000E0818F5F8093930880919308813910F006
:1027700010929308F8948091940881508093940863
:1027800080919408873808F4959878948E2F99272B
:102790000895992791609093D0018093CF01089577
:1027A0008091CF019091D001892B19F081E090E0C8
:1027B00008958091940820E030E0882311F021E012
:1027C00030E0C90108951F93182F8091020280FD07
:1027D00003C00BC00E945208809192088823D1F355
:1027E0008499F8CF06C00E945208809192088823ED
:1027F000D1F31092920810939C001F910895CF93EB
:10280000DF93EC01892B21F406C021960E94E3138B
:1028100088818823D1F7DF91CF9108951F93CF93BB
:10282000DF9314C00E949313EC010E94AA0481302C
:1028300021F48C2F0E949D0809C0823039F48C2F1E
:10284000992791609093D0018093CF018091940853
:10285000882341F7DF91CF911F9108958E3F09F4AE
:102860006DC09091FC0197FD69C092FF55C0813801
:10287000C1F1823890F4843059F1853030F48823E6
:10288000F9F0813009F056C01EC08630C9F186309B
:1028900010F1803809F04EC021C08C3841F18D38DC
:1028A00040F4853881F1863889F1823809F042C0D8
:1028B0001BC0863911F1883C61F18D38D9F51AC0F9
:1028C0008CE990E002C08FE990E00E94C90832C014
:1028D00087EA90E0FACF8DEA90E0F7CF88EB90E0BE
:1028E000F4CF81EC90E0F1CF8FEC90E0EECF88ED6B
:1028F00090E0EBCF81EE90E0E8CF8FEE90E0E5CF77
:1029000088EF90E0E2CF8DEF90E0DFCF85E091E0BF
:10291000DCCF8DE191E0D9CF8D3F61F020E044E63E
:1029200050E06DE772E099270E94C7068DE792E0BC
:102930000E94DA0888EB91E00E94DA08089510926C
:1029400096081092B1081092B0081092B208109236
:10295000CD081092CC08089580919608882341F004
:102960008091B208882319F080E090E0089581E01A
:102970008F5F9927089599272CE130E0829FF0011D
:10298000839FF00D929FF00D1124E658F74F808140
:102990009927089599272CE130E0829FF001839FC9
:1029A000F00D929FF00D1124E558F74F8081918131
:1029B00008950F931F93CF93DF93EC011882EA8D54
:1029C000FB8D06C000811181CF010E949311F80197
:1029D0003097C1F71B8E1A8EDF91CF911F910F9107
:1029E00008952F923F924F925F926F927F928F92B3
:1029F0009F92AF92BF92CF92DF92EF92FF920F938E
:102A00001F93CF93DF93CDB7DEB727970FB6F89418
:102A1000DEBF0FBECDBF1F821E824C017D836C8343
:102A20003A010E9480112C01009719F420E030E057
:102A3000BAC1B8E0AB2EB12CA80EB91EACE1CA2EBB
:102A4000D12CC80ED91E6114710469F020E030E069
:102A5000DC01D096EC81FD8181918D932F5F3F4FFA
:102A600026153705C9F7F4018081682F6F7064302F
:102A700020F472E0F1E0FB8308C0653021F070E0E3
:102A80001B82673011F471E07B836114710419F0CB
:102A9000786021E02B8384FF04C07460F40110820D
:102AA00003C0623009F07061F40181819281F60106
:102AB00091838083F40183819481F60193838283DF
:102AC000F4012585368547855089E52EFF240027AA
:102AD0001127DA01C90180709070B070892F9A2F88
:102AE000AB2FBB27E82AF92A0A2B1B2BB22FAA27C8
:102AF00099278827207040705070542F432F322F11
:102B00002227822B932BA42BB52BE82AF92A0A2BF8
:102B10001B2BF601E482F58206831783F4012185DD
:102B2000328543855485E52EFF2400271127DA01DD
:102B3000C90180709070B070892F9A2FAB2FBB277E
:102B4000E82AF92A0A2B1B2BB22FAA2799278827B4
:102B5000207040705070542F432F322F2227822B29
:102B6000932BA42BB52BE82AF92A0A2B1B2BF60151
:102B7000E086F18602871387758780E090E8978763
:102B8000868780E58487118A108A653021F062305B
:102B900011F0673091F5F401258536854785508918
:102BA0002150304040405040E52EFF24002711279F
:102BB000DA01C90180709070B070892F9A2FAB2F05
:102BC000BB27E82AF92A0A2B1B2BB22FAA27992701
:102BD0008827207040705070542F432F322F2227A7
:102BE000822B932BA42BB52BE82AF92A0A2B1B2B1B
:102BF000F601E482F5820683178393014427552763
:102C0000F40185859685A785B089820F931FA41F3F
:102C1000B51F85879687A787B08B6250623010F00A
:102C200090E00BC082E0F601848B84E0858B168AED
:102C300080E8878B80E6848794E085E4F5018083D3
:102C4000809110028183E92EFF2483010E0D1F1D48
:102C5000C8018896292E382E338222828091FF0760
:102C60009091000895838483019690930008809347
:102C7000FF0780910F0280871782168286E0818786
:102C80008091110290911202A0911302B09114024E
:102C900084879587A687B787F40185819681A78168
:102CA000B085F501808B918BA28BB38B1386128636
:102CB00044E150E0B50180E090E00E94C611F501CA
:102CC00093878287B501645F7F4F48E050E080E0E2
:102CD00090E00E94C6110C5E1F4F1E830F832E8151
:102CE0003F813A83298342E050E08E010F5F1F4FFE
:102CF000B8010E94C61120E036E03A83298342E001
:102D000050E0B8010E94C611E4E1F0E0EE0EFF1EB3
:102D1000A701B6010E94C611A3016C817D810E94AA
:102D2000C611F601918B808B24E130E0E20EF31E98
:102D30009301A7016C817D81C5010E94321261144B
:102D4000710429F1F40185859685F20193838283CC
:102D50001182108228E230E0620E731E7782668252
:102D600088ED9FEF680E791EF401A28DB38D109748
:102D700051F08D919C911197009711F0DC01F9CFE2
:102D80004D925C9207C0F401538E428E03C0C20183
:102D90000E949311FB81FF2329F00E94C123F401BB
:102DA000908F878B9301C90127960FB6F894DEBFE9
:102DB0000FBECDBFDF91CF911F910F91FF90EF908C
:102DC000DF90CF90BF90AF909F908F907F906F904B
:102DD0005F904F903F902F900895A82F8823D1F0B7
:102DE000282F33278CE190E0289FF001299FF00DD8
:102DF000389FF00D1124E658F74F80818F70843092
:102E000049F48CE1A89FC00111248658974F0E9475
:102E1000F114089580E090E00895CF93DF93C6E920
:102E2000D8E08881882361F10E94C1234F89588DA1
:102E3000841B950B20910D0230910E022817390743
:102E4000F8F4452BE9F0898D8F5F898F0E94C123AB
:102E5000988F8F8BEA8DFB8D309741F440E050E0E6
:102E600060E070E0CE010E94F1140AC046815781F3
:102E700020E030E060E070E0CF0108960E9432125E
:102E80006C9688E0CE3CD80761F6DF91CF9108952B
:102E90002F923F924F925F926F927F929F92AF924A
:102EA000BF92CF92DF92EF92FF920F931F93CF9337
:102EB000DF93CDB7DEB766970FB6F894DEBF0FBECF
:102EC000CDBF2C016B018A0104511040212F302FFE
:102ED0003A83298380E096E09C838B83B201645F10
:102EE0007F4F48E050E080E090E00E94C61142E051
:102EF00050E0BE016F5F7F4F0E94C61142E050E07C
:102F0000BE016D5F7F4F0E94C611A801B6010E94ED
:102F1000C611892B09F0DDC2F201E380F280F601CF
:102F20008485869586951701281A31084CEE5FEF47
:102F3000240E351E1A8219826091960820919908F4
:102F400030919A08808191812817390711F52091D5
:102F50009708309198088281938128173907C9F41E
:102F600020919B0830919C0840919D0850919E08AB
:102F7000F20184859585A685B785281739074A0704
:102F80005B0739F4BFE09B2E962219F060E070E0F9
:102F900035C081E090E09A8389836091B2082091E6
:102FA000B5083091B608F60180819181281739075C
:102FB00009F01FC22091B3083091B4088281938137
:102FC0002817390709F015C22091B7083091B808C1
:102FD0004091B9085091BA08F20184859585A6857B
:102FE000B785281739074A075B0709F002C2AFE027
:102FF0009A2E962209F4FDC161E070E0F601858504
:1030000084FF99C0F6012085318542855385E52EE0
:10301000FF2400271127DA01C90180709070B07079
:10302000892F9A2FAB2FBB27E82AF92A0A2B1B2BB3
:10303000B22FAA2799278827207040705070542FEC
:10304000432F322F2227822B932BA42BB52BE82A38
:10305000F92A0A2B1B2B8CE190E0689FF001699FF5
:10306000F00D789FF00D1124EA56F74F818992896F
:10307000A389B4898E159F05A007B10709F45BC029
:10308000E18AF28A038B148B29813A818CE190E0EA
:10309000289F8001299F100D389F100D11240A567A
:1030A000174FF801A28DB38D1097C9F081899289CD
:1030B000FD0122813381821B930B97FD0AC08D9104
:1030C0009C911197F801938F828FCD010E949311EB
:1030D000DBCF0E94C123F801908F878B03C0F801DA
:1030E000108E178AF7E09F16A1F429813A818CE1AE
:1030F00090E0289FF001299FF00D389FF00D1124DA
:10310000EA56F74F88E08083E8E09E2E41E04E8B40
:1031100013C0892D8550823070F429813A818CE169
:1031200090E0289FF001299FF00D389FF00D1124A9
:10313000EA56F74F10821E8AF601858582FF11C07C
:1031400089819A812CE130E0AC01429FC001439F0C
:10315000900D529F900D11248A56974F0E94D914BA
:103160004DC154E0951639F087E0981621F098E0AB
:10317000991609F06EC0121413040CF06AC0F6011F
:103180002481358146815781A980BA80E52EFF24AC
:1031900000271127DA01C90180709070B070892F63
:1031A0009A2FAB2FBB27E82AF92A0A2B1B2BB22F09
:1031B000AA2799278827207040705070542F432FDA
:1031C000322F2227822B932BA42BB52BE82AF92A06
:1031D0000A2B1B2BECE16E2E712CA69CF001A79CF8
:1031E000F00DB69CF00D1124EA56F74F81859285BB
:1031F000A385B485E816F9060A071B0741F5B60151
:103200006C5E7F4F0588F689E02DA1018A2D8F5FC6
:10321000099529813A81269DF001279DF00D369D63
:10322000F00D1124EA56F74F7C010027F7FC0095BA
:10323000102F21853285438554852E0D3F1D401F5B
:10324000511F2187328743875487892B11F0F1E082
:10325000FE8BF601858580FF65C0F4E09F1631F591
:1032600029813A818CE190E0289FF001299FF00D9F
:10327000389FF00D1124EA56F74F85E08083818551
:103280009285A385B4850196A11DB11D8187928782
:10329000A387B48785859685A785B0890196A11DEA
:1032A000B11D85879687A787B08B10C147E094161C
:1032B000D9F429813A818CE190E0289FF001299F7F
:1032C000F00D389FF00D1124EA56F74F89E0808306
:1032D00081859285A385B4850196A11DB11D818745
:1032E0009287A387B487F2C058E09516D9F4298154
:1032F0003A818CE190E0289FF001299FF00D389FE2
:10330000F00D1124EA56F74F8AE08083818592857B
:10331000A385B4850196A11DB11D81879287A387DE
:10332000B48752C0892D8150823008F04AC0F6011E
:10333000858581FF46C069817A81248135814681F6
:1033400057818CE190E0689FF001699FF00D789FB4
:10335000F00D1124EA56F74FE52EFF240027112720
:10336000DA01C90180709070B070892F9A2FAB2F4D
:10337000BB27E82AF92A0A2B1B2BB22FAA27992749
:103380008827207040705070542F432F322F2227EF
:10339000822B932BA42BB52BE82AF92A0A2B1B2B63
:1033A0000894E11CF11C011D111DE186F2860387C2
:1033B000148741E0941611F483E001C084E0808317
:1033C00003C05E895130D1F489819A812CE130E0CB
:1033D000FC01E29FC001E39F900DF29F900D11242C
:1033E00040E050E060E070E08A56974F0E94F11490
:1033F00005C082E090E09A83898305C089819A8123
:10340000029708F466C0F6018585282F332722FD30
:1034100060C0F20184859585A685B7858A879B87DC
:10342000AC87BD87F601828193819F838E838081E3
:103430009181998788871A8A1B8A1C8A1D8A24FF92
:1034400036C02481358146815781E52EFF2400272F
:103450001127DA01C90180709070B070892F9A2FFE
:10346000AB2FBB27E82AF92A0A2B1B2BB22FAA273E
:1034700099278827207040705070542F432F322F87
:103480002227822B932BA42BB52BE82AF92A0A2B6F
:103490001B2BC101AA2797FDA095BA2FE80EF91E94
:1034A0000A1F1B1FEE86FF86088B198B04C01E8621
:1034B0001F86188A198A8BE18D8340E050E060E016
:1034C00070E0CE0105960E94F11403C0F1E0FE8B7E
:1034D00029CF66960FB6F894DEBF0FBECDBFDF9141
:1034E000CF911F910F91FF90EF90DF90CF90BF9001
:1034F000AF909F907F906F905F904F903F902F90F4
:103500000895CF93DF93982F882309F448C09150F2
:103510008CE1989FE0011124CA56D74F88819927E2
:103520008F709070009711F480E03AC08A30910556
:1035300099F10497B9F487E088838D859E85AF85DE
:10354000B8890196A11DB11D8D879E87AF87B88B65
:1035500040E050E060E070E0CE010E94F1140E9473
:10356000CA230AC080E1888340E050E060E070E058
:10357000CE010E94F11410C00E940E1480E00E943F
:103580000D178881882341F08A3031F087E090E080
:103590000E94EE23882381F3CE010E94D91481E09A
:1035A0009927DF91CF910895DF92EF92FF920F93C9
:1035B0001F93CF93DF937B018C0180919608882322
:1035C00011F4DD2407C08091B208882309F04FC0B0
:1035D00081E0D82E8CE1D89EE0011124CA56D74F45
:1035E0003E8B2D8BE52FF42FFC83EB83ED82FE8247
:1035F0000F8318870E94C6239A83898382E2888377
:1036000081E090E0A0E0B0E08D879E87AF87B88B27
:10361000198A1A8A1B8A1C8A19861A861B861C8696
:103620001B8E1A8E198E188E1F8A0E94CA2340E0A4
:1036300050E060E070E0CE010E94F1140E940E1490
:1036400080E00E940D179881892F8F70843059F087
:10365000992369F080910C0299270E94EE23882318
:1036600069F3188204C0D3948D2D992702C080E09D
:1036700090E0DF91CF911F910F91FF90EF90DF903D
:1036800008951092CF081092CE081092D30810928D
:10369000D20808959C018091CE089091CF08892B83
:1036A00021F4E0E0F0E080E00CC08091D20890913D
:1036B000D308892B19F080E090E00895E1E0F0E074
:1036C00081E0EE0FFF1FEE0FFF1FE253F74F318334
:1036D0002083738362838F5F99270895882319F469
:1036E00080E090E00895E82FFF27EE0FFF1FEE0F18
:1036F000FF1FE653F74F808191810895882351F091
:10370000E82FFF27EE0FFF1FEE0FFF1FE653F74FC7
:103710001182108208958F929F92AF92BF92CF92A2
:10372000DF92EF92FF920F931F93CF93DF93CDB76A
:10373000DEB722970FB6F894DEBF0FBECDBF5C0197
:103740008B014A01FB0186819781892B21F180E061
:1037500091E19A838983B501645F7F4F48E050E02F
:1037600080E090E00E94C611B8016C5F7F4F42E09C
:1037700050E00E94C61142E050E0BE016F5F7F4FF3
:103780000E94C611F801E580F480A701B8010E94EB
:10379000C611892BE9F44EECE42E48E0F42EF80132
:1037A000C380D280F701808191818C159D0539F409
:1037B00022813381A401B801C501F901099584E092
:1037C00090E0E80EF91E96EDE91698E0F90639F753
:1037D00022960FB6F894DEBF0FBECDBFDF91CF911A
:1037E0001F910F91FF90EF90DF90CF90BF90AF901F
:1037F0009F908F9008952F923F924F925F926F9279
:103800007F928F929F92AF92BF92CF92DF92EF9270
:10381000FF920F931F93CF93DF93CDB7DEB72C9713
:103820000FB6F894DEBF0FBECDBF1A8619861C8670
:103830001B861B012C015C834B833E832D831887E1
:103840000F8347010E9480116C01009719F420E05A
:1038500030E090C08C01085F1F4F5CE1E52EF12C39
:10386000E80EF91E85E4F601808780911002F801C8
:103870008183C4014C96A92EB82EB382A282809176
:10388000FF07909100089583848301969093000828
:103890008093FF0780910F0280871782168281E153
:1038A00081878091110290911202A0911302B09130
:1038B000140284879587A687B787208A318A428A2F
:1038C000538A1386128644E150E0B80180E090E00C
:1038D0000E94C611F801938782876C807B80F70174
:1038E00073826282FE81F9878D818A8789859A85B4
:1038F000F601958F848FF70117821682C40108960E
:103900009B878C878B859C859583848380E091E160
:103910009A838983B6016C5E7F4F48E050E080E077
:1039200090E00E94C611B601605E7F4F42E050E019
:103930000E94C61142E050E0BE016F5F7F4F0E94BF
:10394000C61148E050E0B7010E94C611A4016F8182
:1039500078850E94C611F7019783868394014CE114
:1039600050E06F817885C8010E943212C6010E9422
:1039700093119401C9012C960FB6F894DEBF0FBEC7
:10398000CDBFDF91CF911F910F91FF90EF90DF900E
:10399000CF90BF90AF909F908F907F906F905F90EF
:1039A0004F903F902F900895109275020895CF92F6
:1039B000DF92EF92FF920F931F93CF93DF937C01DF
:1039C000EB018A018091750280FD47C084E090E0A0
:1039D0000E94EE23813009F040C0F701808380917E
:1039E000DB088183D7011496209719F4E0E0F0E01A
:1039F00007C0FE0101900020E9F73197EC1BFD0B99
:103A0000ED93AF01BE01CD010E940724DC01011539
:103A1000110519F4E0E0F0E007C0F8010190002082
:103A2000E9F73197E01BF10BED93AF01B801CD0140
:103A30000E9407248E199F09C92ED82EF701D38220
:103A4000C28200E010E09C0140E050E0B70183E258
:103A500090EC0E9438040E94CA23DF91CF911F91FD
:103A60000F91FF90EF90DF90CF900895CF93DF9369
:103A7000DC01FC0131968C91823019F08330C1F465
:103A80000DC0ED018981E80FF11D11828091750251
:103A90008160809375020E94AE230AC080917502F6
:103AA000806280937502ED018981E80FF11D11821A
:103AB000DF91CF910895EF92FF920F931F93CF93D1
:103AC000DF937B01C0E0D0E08C0112C0CE018F718A
:103AD0009070409721F48BEB91E00E94DA08F80196
:103AE00081918F010E946D0780E20E949D082196BE
:103AF000CE15DF0559F78BEB91E00E94DA08DF91D4
:103B0000CF911F910F91FF90EF900895EF92FF9248
:103B10000F931F93CF93DF937C01DB019A012A5F00
:103B20003F4F2138310510F5FB01E40FF51F60E030
:103B300070E005C08081868331976F5F7F4F641787
:103B40007507C1F788E08C93032F122FFD011383B3
:103B50000283CF2DDE2DD583C48300E010E040E04A
:103B600050E0BD0181E290EC0E943804DF91CF91DA
:103B70001F910F91FF90EF9008952F923F924F92D7
:103B80005F926F927F929F92AF92BF92CF92DF929D
:103B9000EF92FF920F931F93CF93DF931C012B01A2
:103BA0006A01590138017901F901992430C0119154
:103BB000EF01F20103C0181729F0319680818823A4
:103BC000D1F74AC08881FE01E80FF11D31971FC06F
:103BD000812F99270E946007F701108389918183C3
:103BE000FE01D701282F33272250304003C0819196
:103BF000ED0189838A2F8E199927119682179307D1
:103C0000B4F37D010894E11CF11C81E0982EC501FC
:103C1000860D971DE817F90750F2992011F1F6016A
:103C200084E08193E601998111828E2D8C19828323
:103C30008091FC0186FF04C0892F99270E949F076D
:103C4000EC18FD0800E010E0970140E050E0B601FC
:103C5000C1010E94380405C08091FC0186FFBCCFE1
:103C6000B7CF892D9927DF91CF911F910F91FF90A9
:103C7000EF90DF90CF90BF90AF909F907F906F902C
:103C80005F904F903F902F900895EF92FF920F9387
:103C90001F93CF93DF93EC017B018A018091D101C7
:103CA0009091D20101969093D2018093D1014397D4
:103CB00018F081E08093DA0820917202822F992710
:103CC00081FF40C086FD09C02064209372020E94DB
:103CD000C6239093D4018093D30180E8C132D807E2
:103CE000D9F080E8C232D80720F4C132D105F1F40E
:103CF00018C080ECC132D80729F080ECC332D80755
:103D0000A9F405C0B801C7010E943B101BC0B8014F
:103D1000C7010E94361D16C0B801C7010E9495094F
:103D200011C0B801C7010E94E5120CC08091FC01CE
:103D300086FF03C08C2F0E946D07A801B701CE013A
:103D40000E94861DDF91CF911F910F91FF90EF9000
:103D50000895FF920F931F93CF93DF930E948011DA
:103D6000EC01892B19F480E090E05DC08091720233
:103D700081FD02C0FF2450C080917402992780FF0A
:103D800002C081FD05C0CE0108960E94D80F17C061
:103D900082FF11C08091750280FD0DC04091D60850
:103DA0005091D7086091D8087091D908CE01089633
:103DB0000E94D71C04C0CE0108960E94040980917D
:103DC0007602992780FF0AC081FF08C080917202A5
:103DD00080688093720231E0F32E01C0FF2480914D
:103DE0007502992785FD02C084FF04C010927202FB
:103DF0002EEFF22E0091060211270E94C623209179
:103E0000D3013091D401821B930B0817190720F4BA
:103E1000109272029FEFF92ECE010E9493118F2D06
:103E2000992787FD9095DF91CF911F910F91FF907A
:103E30000895CF92DF92EF92FF920F931F93CF934B
:103E4000DF938091720287FD05C080E090E034C06E
:103E50000FEF27C00E949F148091740280688093A6
:103E600074020E9480116C01EC012896CE010E9420
:103E700004090E94C6237C010AC000910602112792
:103E80000E94C6238E199F090817190708F30E947C
:103E90000E14CE010E94D80F8091740281FDEDCFE7
:103EA00000E00E94E60310927202C6010E94931184
:103EB000802F992787FD9095DF91CF911F910F91CA
:103EC000FF90EF90DF90CF9008950E949F140E9482
:103ED000E603109272020895809173028130E9F432
:103EE0000E94DE03882399F00E94A91E8823A9F06E
:103EF000813029F484E08093690481E003C00E944A
:103F0000651F80E80E942E141092730208950E948B
:103F1000C6239093D4018093D30108951092D201C7
:103F20001092D1011092DA080E94A411109272022C
:103F3000109273020E94D41C0E94E9080E94321061
:103F400060E070E080E090E00E94BE030E94C70342
:103F500008957093D9086093D8085093D708409378
:103F6000D6080E949F140E94411B0E948E1F8091C0
:103F700072028264809372020E94C6239093D401DD
:103F80008093D3010E940E140E94A91E8823D1F3AE
:103F9000992787FD909508950E949F140E94411BC8
:103FA0000E948E1F0E94D70381E292E09093D9086D
:103FB0008093D80888969093D7088093D60881E09C
:103FC000809373028091720282648093720280E017
:103FD00090E0089530E0FC01E60FF71FE081EE234A
:103FE00099F06F5F7F4FE03C19F03F5F20E003C026
:103FF000CB01019608953F5F3B3F30F46F5F7F4FE9
:104000002F5F2E17C1F7E7CF80E090E008950F9360
:104010001F93CF93DF93EB018A014831510508F4D8
:104020004DC09091D6018985981709F047C08A85BF
:1040300087FF44C08B858038E9F082E08093D5010A
:104040003DC0FB01EC0FFD1F82858093DE08FB0164
:10405000EC0FFD1F83858093DF08FB013C96EC0F7E
:10406000FD1F80818093E00881818093E108909317
:10407000D50124C08091D701682F7727685E7F4FD4
:104080001AC0CE010E94EA1FBC010097B9F0FC01E2
:10409000EC0FFD1F9181FE01E60FF71F8081882341
:1040A00011F4913071F2FB01EC0FFD1F8185665F09
:1040B0007F4F680F711D6017710718F3DF91CF9163
:1040C0001F910F9108952F923F924F925F926F929E
:1040D0007F928F929F92AF92BF92CF92DF92EF9298
:1040E000FF920F931F93CF93DF93CDB7DEB7219746
:1040F0000FB6F894DEBF0FBECDBF1C016B018091DF
:10410000190290911A0220911B0230911C02822BFD
:10411000932B892B09F453C188ED91E00E94202450
:10412000892B81F48091F6019091F701A091F8011B
:10413000B091F901F10180839183A283B38380E080
:1041400090E03FC11092D5010E9480114C01009770
:1041500009F435C138E0A32EB12CA80EB91E67E0D2
:1041600070E280E098E00E944A1B8983882349F42A
:10417000C4010E94931123C127EF622E2FEF722EEC
:1041800011C197EF692E9FEF792E44245524F50134
:1041900011929F018091D601F5018183D901119679
:1041A00081E0F90181839D012F5F3F4FFD01118265
:1041B000D9011196F90111829D012F5F3F4FFD0139
:1041C0008183D9011196F90111829D012F5F3F4F23
:1041D000FD011182D9011196F90111829D012F5F14
:1041E0003F4FFD011182D9011196F9011182FD01A4
:1041F00011829D012E5F3F4F8093D701860191E090
:104200002CC04F5F5F4F319680818F3218F08A3318
:10421000C1F702C08D32A9F3D9014D939F5F790197
:10422000B8019A0105C0FB018191BF01F7018083AC
:10423000215030400894E11CF11CFFEF2F3F3F0755
:1042400091F7940F040F151F9D01240F351FF801DE
:1042500080818E3211F40F5F1F4FF80180818E3202
:1042600030F08A3321F0F80140E050E0CDCF909358
:10427000D701F9011192AF01F9011182DA0111960A
:1042800081E0FA018183FD01118282834816F9F4ED
:1042900080911D0290911E0220911F0230912002F8
:1042A000822B932B892B99F02091D7013327205F04
:1042B0003F4F60911D0270911E0280911F029091EC
:1042C000200212C089EF682E8FEF782E26C0209131
:1042D000D7013327205F3F4F6091190270911A0276
:1042E00080911B0290911C027901850120E038E049
:1042F00045E350E00E94FB1B0E94C6237C0109C0DD
:10430000109101020E94C6238E191817D8F20E943C
:104310000E148091D501882399F38091D5018130C5
:10432000B1F58091DE089091DF08A091E008B0918E
:10433000E108F10180839183A283B383F6010190A8
:104340000020E9F78F01015010400C191D090E31B2
:104350001105D0F48091DE089091DF08A091E0086B
:10436000B091E1088093F6019093F701A093F801D2
:10437000B093F901A801B60188ED91E00E940724ED
:1043800008521E4FF8011082662477240BC0823039
:1043900009F4F2CE0894411C511CF3E04F1651046D
:1043A00009F0F5CE8091D6018F5F8093D601898187
:1043B0000E947E1BC4010E949311C30102C087EFBB
:1043C0009FEF21960FB6F894DEBF0FBECDBFDF91F1
:1043D000CF911F910F91FF90EF90DF90CF90BF9002
:1043E000AF909F908F907F906F905F904F903F9095
:1043F0002F900895EF92FF920F931F93CF93DF9327
:10440000CDB7DEB728970FB6F894DEBF0FBECDBF8D
:10441000FC0181E08A8389831C821B828CEFE82E59
:1044200081E0F82E01C0319680818032E1F3BE0137
:104430006F5F7F4FCF010E943907FC0101C0F80177
:1044400081918F018032D9F38D3321F481E090E0A6
:104450009C838B838981853009F46CC0863080F41D
:104460008230B1F1833030F4882321F1813009F0BA
:104470000BC11EC08330D1F0843009F005C150C09B
:10448000883009F4AFC0893038F4863009F46EC042
:10449000873009F0F9C086C08A3009F4D2C08A306A
:1044A00008F4B7C08B3009F0EFC0DBC088EC09C15D
:1044B00082E08A838A810E94BB149C838B830E9442
:1044C0006D0780E20E949D088A810E94CA142DC057
:1044D0008091960290919702892B19F480E090E0E8
:1044E00002C081E090E00E949F0780E20E949D0848
:1044F00080918D0290918E020E949F0780E20E941F
:104500009D0880E992E00E94AF0780E20E949D082A
:1045100080919402909195020E949F078FEFD1C0E5
:10452000E0919601F091970109959C838B830E94FD
:104530006007F4CF8B819C810197A9F4BE016B5F6A
:104540007F4FC8010E9419060817190761F08D8175
:10455000809311028E81809312028F8180931302C7
:1045600088858093140281E192E039C08B819C811F
:104570000197A9F4BE016B5F7F4FC8010E94190625
:104580000817190761F08D81809319028E8180933D
:104590001A028F8180931B02888580931C0289E117
:1045A00092E01DC08B819C810197B9F4BE016B5FC5
:1045B0007F4FC8010E9419060817190709F4AECFEA
:1045C0008D8180931D028E8180931E028F81809346
:1045D0001F02888580932002A1CF8DE192E00E9486
:1045E000AF079CCF8B819C81019781F4BE016D5FE9
:1045F0007F4FC8010E94A806E816F90609F460C0BA
:104600008B819C81809303020E9486138091030218
:1046100016C08B819C81019781F4BE016D5F7F4F35
:10462000C8010E94A806E816F90609F449C08B8162
:104630009C81809304020E94861380910402992732
:104640006BCF8B819C81019749F4BE016E5F7F4FD8
:10465000C8010E9439078A818093610080916100BE
:104660000FC08B819C81019749F4BE016E5F7F4F23
:10467000C8010E9439078A8180936200809162009C
:104680008A830E946D074ACF80528238C8F48B819A
:104690009C81019761F4BE016E5F7F4FC8010E944B
:1046A0003907E981FF27E452FE4F8A818083E9813F
:1046B000FF27E452FE4F80810E946D078DEF01C0FD
:1046C00084E0992728960FB6F894DEBF0FBECDBFC1
:1046D000DF91CF911F910F91FF90EF9008951F925E
:1046E0000F920FB60F9211248F939F938091E80839
:1046F0008F5F8093E8088091E3089091E408019629
:104700009093E4088093E3088091E7088F5F80939B
:10471000E7088091E7088A3058F01092E708809106
:10472000E5089091E60801969093E6088093E508E5
:104730008091E808873438F08091E2088F5F809399
:10474000E2081092E80888EB82BFC498C5989F9150
:104750008F910F900FBE0F901F9018951092FB0134
:104760001092FA0180E090E0089581E087BF87E031
:1047700083BF88EB82BF08958091E3089091E4089D
:1047800008958091E5089091E60808958091E208E7
:10479000992708952091E208822F99279093FB0191
:1047A0008093FA01222331F481E090E09093FB01A1
:1047B0008093FA0108954091E3085091E408209114
:1047C000E3083091E408241B350B37FF03C0309514
:1047D00021953F4F8217930790F70895AC012091E0
:1047E000FA013091FB012115310519F481E090E0C7
:1047F00008958091E20860E070E09927821B930B96
:104800004817590710F461E070E0CB010895CF9389
:10481000DF939C01009781F06115710569F0E0E07C
:10482000F0E0EC01DB0103C08D9189933196E41730
:10483000F507D1F7240F351FC901DF91CF910895F6
:10484000FB01DC018D91019080190110D9F3990BC6
:104850000895AA1BBB1B51E107C0AA1FBB1FA617C7
:10486000B70710F0A61BB70B881F991F5A95A9F719
:1048700080959095BC01CD010895911107C08F934B
:1048800012D088238F9109F0089505C099278827B1
:10489000089585FDFBCF80629111F8CF8136ECF34E
:1048A0008B37DCF708959111F1CF80538A50E0F7F0
:1048B00008958F93F0DF8F9109F08F7D0895E1992E
:1048C000FECFBFBBAEBBE09A11960DB20895E19941
:1048D000FECFBFBBAEBB0DBA11960FB6F894E29AED
:0848E000E19A0FBE0895FFCF1D
:1048E800754E657453657269616C2C20456D6265FF
:1048F8006464656420696E7465726E6574205443DF
:10490800502F495020737461636B206F7665722055
:104918005050502C2042657461202D2056657273CA
:10492800696F6E20302E37700D0A00092D426574AC
:10493800612056657273696F6E206275696C6420B8
:104948006F6E204665622020342032303038206176
:10495800742031363A35313A34310D0A00092D4286
:104968006F6F746C6F616465722056657273696FDE
:104978006E20000D0A000370067000700D0A000317
:104988008183000D0A004F4B202D200030206D73CD
:0E49980000050708030201000D0A000D0A00C9
:00000001FF
